{
  "_format": "hh-sol-artifact-1",
  "contractName": "Employees",
  "sourceName": "contracts/Employees.sol",
  "abi": [
    {
      "inputs": [
        {
          "internalType": "address",
          "name": "_payroll",
          "type": "address"
        },
        {
          "internalType": "string",
          "name": "_companyName",
          "type": "string"
        }
      ],
      "stateMutability": "nonpayable",
      "type": "constructor"
    },
    {
      "anonymous": false,
      "inputs": [
        {
          "indexed": false,
          "internalType": "address",
          "name": "_assignee",
          "type": "address"
        },
        {
          "indexed": false,
          "internalType": "address",
          "name": "_newAdmin",
          "type": "address"
        }
      ],
      "name": "AdminAdded",
      "type": "event"
    },
    {
      "anonymous": false,
      "inputs": [
        {
          "indexed": false,
          "internalType": "address",
          "name": "_demoter",
          "type": "address"
        },
        {
          "indexed": false,
          "internalType": "address",
          "name": "_employee",
          "type": "address"
        }
      ],
      "name": "AdminRemoved",
      "type": "event"
    },
    {
      "anonymous": false,
      "inputs": [
        {
          "indexed": false,
          "internalType": "string",
          "name": "_name",
          "type": "string"
        },
        {
          "indexed": false,
          "internalType": "address",
          "name": "_wallet",
          "type": "address"
        },
        {
          "indexed": false,
          "internalType": "uint256",
          "name": "_amount",
          "type": "uint256"
        }
      ],
      "name": "EmployeePaid",
      "type": "event"
    },
    {
      "anonymous": false,
      "inputs": [
        {
          "indexed": true,
          "internalType": "string",
          "name": "_name",
          "type": "string"
        },
        {
          "indexed": false,
          "internalType": "uint256",
          "name": "_salary",
          "type": "uint256"
        },
        {
          "indexed": true,
          "internalType": "address",
          "name": "_wallet",
          "type": "address"
        }
      ],
      "name": "EmpoloyeeCreated",
      "type": "event"
    },
    {
      "anonymous": false,
      "inputs": [
        {
          "indexed": true,
          "internalType": "string",
          "name": "_name",
          "type": "string"
        },
        {
          "indexed": false,
          "internalType": "uint256",
          "name": "_salary",
          "type": "uint256"
        },
        {
          "indexed": true,
          "internalType": "address",
          "name": "_wallet",
          "type": "address"
        }
      ],
      "name": "EmpoloyeeDeleted",
      "type": "event"
    },
    {
      "anonymous": false,
      "inputs": [
        {
          "indexed": true,
          "internalType": "address",
          "name": "previousOwner",
          "type": "address"
        },
        {
          "indexed": true,
          "internalType": "address",
          "name": "newOwner",
          "type": "address"
        }
      ],
      "name": "OwnershipTransferred",
      "type": "event"
    },
    {
      "inputs": [],
      "name": "PayrollContract",
      "outputs": [
        {
          "internalType": "contract Payroll",
          "name": "",
          "type": "address"
        }
      ],
      "stateMutability": "view",
      "type": "function"
    },
    {
      "inputs": [
        {
          "internalType": "string",
          "name": "_name",
          "type": "string"
        },
        {
          "internalType": "uint256",
          "name": "_salary",
          "type": "uint256"
        },
        {
          "internalType": "address",
          "name": "_wallet",
          "type": "address"
        }
      ],
      "name": "addEmployee",
      "outputs": [],
      "stateMutability": "nonpayable",
      "type": "function"
    },
    {
      "inputs": [],
      "name": "companyName",
      "outputs": [
        {
          "internalType": "string",
          "name": "",
          "type": "string"
        }
      ],
      "stateMutability": "view",
      "type": "function"
    },
    {
      "inputs": [],
      "name": "dayOfWork",
      "outputs": [],
      "stateMutability": "nonpayable",
      "type": "function"
    },
    {
      "inputs": [
        {
          "internalType": "uint256",
          "name": "_employeeId",
          "type": "uint256"
        }
      ],
      "name": "deleteEmployee",
      "outputs": [],
      "stateMutability": "nonpayable",
      "type": "function"
    },
    {
      "inputs": [],
      "name": "employeeCounter",
      "outputs": [
        {
          "internalType": "uint256",
          "name": "",
          "type": "uint256"
        }
      ],
      "stateMutability": "view",
      "type": "function"
    },
    {
      "inputs": [
        {
          "internalType": "uint256",
          "name": "",
          "type": "uint256"
        }
      ],
      "name": "employees",
      "outputs": [
        {
          "internalType": "string",
          "name": "name",
          "type": "string"
        },
        {
          "internalType": "uint256",
          "name": "moneyPerYear",
          "type": "uint256"
        },
        {
          "internalType": "uint256",
          "name": "moneyPerMonth",
          "type": "uint256"
        },
        {
          "internalType": "address",
          "name": "walletAddress",
          "type": "address"
        },
        {
          "internalType": "uint256",
          "name": "nextMonthPayment",
          "type": "uint256"
        },
        {
          "internalType": "bool",
          "name": "active",
          "type": "bool"
        },
        {
          "internalType": "uint256",
          "name": "id",
          "type": "uint256"
        }
      ],
      "stateMutability": "view",
      "type": "function"
    },
    {
      "inputs": [],
      "name": "getAllActiveEmployees",
      "outputs": [
        {
          "components": [
            {
              "internalType": "string",
              "name": "name",
              "type": "string"
            },
            {
              "internalType": "uint256",
              "name": "moneyPerYear",
              "type": "uint256"
            },
            {
              "internalType": "uint256",
              "name": "moneyPerMonth",
              "type": "uint256"
            },
            {
              "internalType": "address",
              "name": "walletAddress",
              "type": "address"
            },
            {
              "internalType": "uint256",
              "name": "nextMonthPayment",
              "type": "uint256"
            },
            {
              "internalType": "bool",
              "name": "active",
              "type": "bool"
            },
            {
              "internalType": "uint256",
              "name": "id",
              "type": "uint256"
            }
          ],
          "internalType": "struct Employees.Employee[]",
          "name": "",
          "type": "tuple[]"
        }
      ],
      "stateMutability": "view",
      "type": "function"
    },
    {
      "inputs": [
        {
          "internalType": "uint256",
          "name": "_employeeId",
          "type": "uint256"
        }
      ],
      "name": "getEmployeeById",
      "outputs": [
        {
          "components": [
            {
              "internalType": "string",
              "name": "name",
              "type": "string"
            },
            {
              "internalType": "uint256",
              "name": "moneyPerYear",
              "type": "uint256"
            },
            {
              "internalType": "uint256",
              "name": "moneyPerMonth",
              "type": "uint256"
            },
            {
              "internalType": "address",
              "name": "walletAddress",
              "type": "address"
            },
            {
              "internalType": "uint256",
              "name": "nextMonthPayment",
              "type": "uint256"
            },
            {
              "internalType": "bool",
              "name": "active",
              "type": "bool"
            },
            {
              "internalType": "uint256",
              "name": "id",
              "type": "uint256"
            }
          ],
          "internalType": "struct Employees.Employee",
          "name": "",
          "type": "tuple"
        }
      ],
      "stateMutability": "view",
      "type": "function"
    },
    {
      "inputs": [],
      "name": "getInactiveEmployees",
      "outputs": [
        {
          "components": [
            {
              "internalType": "string",
              "name": "name",
              "type": "string"
            },
            {
              "internalType": "uint256",
              "name": "moneyPerYear",
              "type": "uint256"
            },
            {
              "internalType": "uint256",
              "name": "moneyPerMonth",
              "type": "uint256"
            },
            {
              "internalType": "address",
              "name": "walletAddress",
              "type": "address"
            },
            {
              "internalType": "uint256",
              "name": "nextMonthPayment",
              "type": "uint256"
            },
            {
              "internalType": "bool",
              "name": "active",
              "type": "bool"
            },
            {
              "internalType": "uint256",
              "name": "id",
              "type": "uint256"
            }
          ],
          "internalType": "struct Employees.Employee[]",
          "name": "",
          "type": "tuple[]"
        }
      ],
      "stateMutability": "view",
      "type": "function"
    },
    {
      "inputs": [
        {
          "internalType": "address",
          "name": "",
          "type": "address"
        }
      ],
      "name": "isAdmin",
      "outputs": [
        {
          "internalType": "bool",
          "name": "",
          "type": "bool"
        }
      ],
      "stateMutability": "view",
      "type": "function"
    },
    {
      "inputs": [],
      "name": "monthCurrentDay",
      "outputs": [
        {
          "internalType": "uint256",
          "name": "",
          "type": "uint256"
        }
      ],
      "stateMutability": "view",
      "type": "function"
    },
    {
      "inputs": [],
      "name": "owner",
      "outputs": [
        {
          "internalType": "address",
          "name": "",
          "type": "address"
        }
      ],
      "stateMutability": "view",
      "type": "function"
    },
    {
      "inputs": [],
      "name": "payEmployees",
      "outputs": [],
      "stateMutability": "nonpayable",
      "type": "function"
    },
    {
      "inputs": [
        {
          "internalType": "address",
          "name": "_address",
          "type": "address"
        }
      ],
      "name": "removeAdmin",
      "outputs": [],
      "stateMutability": "nonpayable",
      "type": "function"
    },
    {
      "inputs": [],
      "name": "renounceOwnership",
      "outputs": [],
      "stateMutability": "nonpayable",
      "type": "function"
    },
    {
      "inputs": [
        {
          "internalType": "address",
          "name": "_address",
          "type": "address"
        }
      ],
      "name": "setAdmin",
      "outputs": [],
      "stateMutability": "nonpayable",
      "type": "function"
    },
    {
      "inputs": [
        {
          "internalType": "address",
          "name": "newOwner",
          "type": "address"
        }
      ],
      "name": "transferOwnership",
      "outputs": [],
      "stateMutability": "nonpayable",
      "type": "function"
    }
  ],
  "bytecode": "0x6080604052600460035560016004553480156200001b57600080fd5b5060405162002b5038038062002b508339818101604052810190620000419190620003d8565b62000061620000556200011460201b60201c565b6200011c60201b60201c565b81600160006101000a81548173ffffffffffffffffffffffffffffffffffffffff021916908373ffffffffffffffffffffffffffffffffffffffff1602179055508060059081620000b3919062000689565b506001600660003373ffffffffffffffffffffffffffffffffffffffff1673ffffffffffffffffffffffffffffffffffffffff16815260200190815260200160002060006101000a81548160ff021916908315150217905550505062000770565b600033905090565b60008060009054906101000a900473ffffffffffffffffffffffffffffffffffffffff169050816000806101000a81548173ffffffffffffffffffffffffffffffffffffffff021916908373ffffffffffffffffffffffffffffffffffffffff1602179055508173ffffffffffffffffffffffffffffffffffffffff168173ffffffffffffffffffffffffffffffffffffffff167f8be0079c531659141344cd1fd0a4f28419497f9722a3daafe3b4186f6b6457e060405160405180910390a35050565b6000604051905090565b600080fd5b600080fd5b600073ffffffffffffffffffffffffffffffffffffffff82169050919050565b60006200022182620001f4565b9050919050565b620002338162000214565b81146200023f57600080fd5b50565b600081519050620002538162000228565b92915050565b600080fd5b600080fd5b6000601f19601f8301169050919050565b7f4e487b7100000000000000000000000000000000000000000000000000000000600052604160045260246000fd5b620002ae8262000263565b810181811067ffffffffffffffff82111715620002d057620002cf62000274565b5b80604052505050565b6000620002e5620001e0565b9050620002f38282620002a3565b919050565b600067ffffffffffffffff82111562000316576200031562000274565b5b620003218262000263565b9050602081019050919050565b60005b838110156200034e57808201518184015260208101905062000331565b60008484015250505050565b6000620003716200036b84620002f8565b620002d9565b90508281526020810184848401111562000390576200038f6200025e565b5b6200039d8482856200032e565b509392505050565b600082601f830112620003bd57620003bc62000259565b5b8151620003cf8482602086016200035a565b91505092915050565b60008060408385031215620003f257620003f1620001ea565b5b6000620004028582860162000242565b925050602083015167ffffffffffffffff811115620004265762000425620001ef565b5b6200043485828601620003a5565b9150509250929050565b600081519050919050565b7f4e487b7100000000000000000000000000000000000000000000000000000000600052602260045260246000fd5b600060028204905060018216806200049157607f821691505b602082108103620004a757620004a662000449565b5b50919050565b60008190508160005260206000209050919050565b60006020601f8301049050919050565b600082821b905092915050565b600060088302620005117fffffffffffffffffffffffffffffffffffffffffffffffffffffffffffffffff82620004d2565b6200051d8683620004d2565b95508019841693508086168417925050509392505050565b6000819050919050565b6000819050919050565b60006200056a620005646200055e8462000535565b6200053f565b62000535565b9050919050565b6000819050919050565b620005868362000549565b6200059e620005958262000571565b848454620004df565b825550505050565b600090565b620005b5620005a6565b620005c28184846200057b565b505050565b5b81811015620005ea57620005de600082620005ab565b600181019050620005c8565b5050565b601f82111562000639576200060381620004ad565b6200060e84620004c2565b810160208510156200061e578190505b620006366200062d85620004c2565b830182620005c7565b50505b505050565b600082821c905092915050565b60006200065e600019846008026200063e565b1980831691505092915050565b60006200067983836200064b565b9150826002028217905092915050565b62000694826200043e565b67ffffffffffffffff811115620006b057620006af62000274565b5b620006bc825462000478565b620006c9828285620005ee565b600060209050601f831160018114620007015760008415620006ec578287015190505b620006f885826200066b565b86555062000768565b601f1984166200071186620004ad565b60005b828110156200073b5784890151825560018201915060208501945060208101905062000714565b868310156200075b578489015162000757601f8916826200064b565b8355505b6001600288020188555050505b505050505050565b6123d080620007806000396000f3fe608060405234801561001057600080fd5b50600436106101165760003560e01c8063715018a6116100a2578063a08a1b9911610071578063a08a1b991461029b578063b31f7140146102a5578063ceed5f5a146102c3578063f2fde38b146102f3578063f5ec2eed1461030f57610116565b8063715018a61461023757806379dd81e1146102415780637f00d7141461025f5780638da5cb5b1461027d57610116565b806324d7806c116100e957806324d7806c1461017b578063332a75bd146101ab5780634739326b146101c75780635dd38bfa146101fd578063704b6c021461021b57610116565b80630f0c81fe1461011b5780631785f53c146101395780631cbc90c7146101555780631e7b18db14610171575b600080fd5b61012361032d565b60405161013091906112ad565b60405180910390f35b610153600480360381019061014e919061133a565b610333565b005b61016f600480360381019061016a9190611393565b61045b565b005b610179610664565b005b6101956004803603810190610190919061133a565b61072b565b6040516101a291906113db565b60405180910390f35b6101c560048036038101906101c0919061153c565b61074b565b005b6101e160048036038101906101dc9190611393565b6108d8565b6040516101f49796959493929190611639565b60405180910390f35b6102056109cf565b6040516102129190611884565b60405180910390f35b6102356004803603810190610230919061133a565b610a8b565b005b61023f610bb4565b005b610249610bc8565b60405161025691906112ad565b60405180910390f35b610267610bce565b6040516102749190611884565b60405180910390f35b610285610c42565b60405161029291906118a6565b60405180910390f35b6102a3610c6b565b005b6102ad610e60565b6040516102ba9190611920565b60405180910390f35b6102dd60048036038101906102d89190611393565b610e86565b6040516102ea91906119d7565b60405180910390f35b61030d6004803603810190610308919061133a565b610fe4565b005b610317611067565b60405161032491906119f9565b60405180910390f35b60045481565b61033b6110f5565b600660008273ffffffffffffffffffffffffffffffffffffffff1673ffffffffffffffffffffffffffffffffffffffff16815260200190815260200160002060009054906101000a900460ff166103c7576040517f08c379a00000000000000000000000000000000000000000000000000000000081526004016103be90611a67565b60405180910390fd5b6000600660008373ffffffffffffffffffffffffffffffffffffffff1673ffffffffffffffffffffffffffffffffffffffff16815260200190815260200160002060006101000a81548160ff0219169083151502179055507fdb9d5d31320daf5bc7181d565b6da4d12e30f0f4d5aa324a992426c14a1d19ce3382604051610450929190611a87565b60405180910390a150565b6104636110f5565b6002548111156104a8576040517f08c379a000000000000000000000000000000000000000000000000000000000815260040161049f90611afc565b60405180910390fd5b600060076000838152602001908152602001600020905060008160050160006101000a81548160ff0219169083151502179055508060030160009054906101000a900473ffffffffffffffffffffffffffffffffffffffff1673ffffffffffffffffffffffffffffffffffffffff16816000016040516105289190611c1f565b60405180910390207f1895a40dcedb4dfe4123dd35b6cc305cec20ac23c66f40068402af043522a76d836001015460405161056391906112ad565b60405180910390a36000600354600c83600101546105819190611c94565b61058b9190611cc5565b9050600081600161059c9190611cc5565b6004546105a99190611d07565b9050600160009054906101000a900473ffffffffffffffffffffffffffffffffffffffff1673ffffffffffffffffffffffffffffffffffffffff166340c10f198460030160009054906101000a900473ffffffffffffffffffffffffffffffffffffffff16836040518363ffffffff1660e01b815260040161062c929190611d3b565b600060405180830381600087803b15801561064657600080fd5b505af115801561065a573d6000803e3d6000fd5b5050505050505050565b600660003373ffffffffffffffffffffffffffffffffffffffff1673ffffffffffffffffffffffffffffffffffffffff16815260200190815260200160002060009054906101000a900460ff166106f0576040517f08c379a00000000000000000000000000000000000000000000000000000000081526004016106e790611dd6565b60405180910390fd5b6003546004540361071057610703610c6b565b6001600481905550610729565b6004600081548092919061072390611df6565b91905055505b565b60066020528060005260406000206000915054906101000a900460ff1681565b6107536110f5565b600060076000600254815260200190815260200160002090508381600001908161077d9190611fcb565b50828160010181905550600c836107949190611c94565b8160020181905550818160030160006101000a81548173ffffffffffffffffffffffffffffffffffffffff021916908373ffffffffffffffffffffffffffffffffffffffff16021790555060016004541461082657600354816002015460016004546003546108039190611d07565b61080d919061209d565b6108179190611cc5565b6108219190611c94565b61082c565b80600201545b8160040181905550600254816006018190555060018160050160006101000a81548160ff0219169083151502179055506002600081548092919060010191905055508173ffffffffffffffffffffffffffffffffffffffff16846040516108939190612102565b60405180910390207fa7d1b891ddd38048683deaab6b1f8213e051ec1402200a6051a74ab978467eed856040516108ca91906112ad565b60405180910390a350505050565b60076020528060005260406000206000915090508060000180546108fb90611b4b565b80601f016020809104026020016040519081016040528092919081815260200182805461092790611b4b565b80156109745780601f1061094957610100808354040283529160200191610974565b820191906000526020600020905b81548152906001019060200180831161095757829003601f168201915b5050505050908060010154908060020154908060030160009054906101000a900473ffffffffffffffffffffffffffffffffffffffff16908060040154908060050160009054906101000a900460ff16908060060154905087565b6060600060025467ffffffffffffffff8111156109ef576109ee611411565b5b604051908082528060200260200182016040528015610a2857816020015b610a1561123f565b815260200190600190039081610a0d5790505b50905060005b600254811015610a83576000610a4382610e86565b90508060a0015115610a6f5780838381518110610a6357610a62612119565b5b60200260200101819052505b508080610a7b90611df6565b915050610a2e565b508091505090565b610a936110f5565b600660008273ffffffffffffffffffffffffffffffffffffffff1673ffffffffffffffffffffffffffffffffffffffff16815260200190815260200160002060009054906101000a900460ff1615610b20576040517f08c379a0000000000000000000000000000000000000000000000000000000008152600401610b17906121ba565b60405180910390fd5b6001600660008373ffffffffffffffffffffffffffffffffffffffff1673ffffffffffffffffffffffffffffffffffffffff16815260200190815260200160002060006101000a81548160ff0219169083151502179055507fbf3f493c772c8c283fd124432c2d0f539ab343faa04258fe88e52912d36b102b3382604051610ba9929190611a87565b60405180910390a150565b610bbc6110f5565b610bc66000611173565b565b60025481565b6060806000805b600254811015610c3957610be881610e86565b60a00151610c2657610bf981610e86565b838381518110610c0c57610c0b612119565b5b60200260200101819052508180610c2290611df6565b9250505b8080610c3190611df6565b915050610bd5565b50819250505090565b60008060009054906101000a900473ffffffffffffffffffffffffffffffffffffffff16905090565b60005b600254811015610e5d576007600082815260200190815260200160002060050160009054906101000a900460ff1615610e4a57600160009054906101000a900473ffffffffffffffffffffffffffffffffffffffff1673ffffffffffffffffffffffffffffffffffffffff166340c10f196007600084815260200190815260200160002060030160009054906101000a900473ffffffffffffffffffffffffffffffffffffffff1660076000858152602001908152602001600020600401546040518363ffffffff1660e01b8152600401610d4a929190611d3b565b600060405180830381600087803b158015610d6457600080fd5b505af1158015610d78573d6000803e3d6000fd5b505050507f525229eda8db65f11d4e28be5bf453f557fc965011eec58cdf019975a0b935c3600760008381526020019081526020016000206000016007600084815260200190815260200160002060030160009054906101000a900473ffffffffffffffffffffffffffffffffffffffff166007600085815260200190815260200160002060040154604051610e109392919061225e565b60405180910390a1600760008281526020019081526020016000206002015460076000838152602001908152602001600020600401819055505b8080610e5590611df6565b915050610c6e565b50565b600160009054906101000a900473ffffffffffffffffffffffffffffffffffffffff1681565b610e8e61123f565b6000600760008481526020019081526020016000209050806040518060e0016040529081600082018054610ec190611b4b565b80601f0160208091040260200160405190810160405280929190818152602001828054610eed90611b4b565b8015610f3a5780601f10610f0f57610100808354040283529160200191610f3a565b820191906000526020600020905b815481529060010190602001808311610f1d57829003601f168201915b5050505050815260200160018201548152602001600282015481526020016003820160009054906101000a900473ffffffffffffffffffffffffffffffffffffffff1673ffffffffffffffffffffffffffffffffffffffff1673ffffffffffffffffffffffffffffffffffffffff168152602001600482015481526020016005820160009054906101000a900460ff16151515158152602001600682015481525050915050919050565b610fec6110f5565b600073ffffffffffffffffffffffffffffffffffffffff168173ffffffffffffffffffffffffffffffffffffffff160361105b576040517f08c379a00000000000000000000000000000000000000000000000000000000081526004016110529061230e565b60405180910390fd5b61106481611173565b50565b6005805461107490611b4b565b80601f01602080910402602001604051908101604052809291908181526020018280546110a090611b4b565b80156110ed5780601f106110c2576101008083540402835291602001916110ed565b820191906000526020600020905b8154815290600101906020018083116110d057829003601f168201915b505050505081565b6110fd611237565b73ffffffffffffffffffffffffffffffffffffffff1661111b610c42565b73ffffffffffffffffffffffffffffffffffffffff1614611171576040517f08c379a00000000000000000000000000000000000000000000000000000000081526004016111689061237a565b60405180910390fd5b565b60008060009054906101000a900473ffffffffffffffffffffffffffffffffffffffff169050816000806101000a81548173ffffffffffffffffffffffffffffffffffffffff021916908373ffffffffffffffffffffffffffffffffffffffff1602179055508173ffffffffffffffffffffffffffffffffffffffff168173ffffffffffffffffffffffffffffffffffffffff167f8be0079c531659141344cd1fd0a4f28419497f9722a3daafe3b4186f6b6457e060405160405180910390a35050565b600033905090565b6040518060e00160405280606081526020016000815260200160008152602001600073ffffffffffffffffffffffffffffffffffffffff16815260200160008152602001600015158152602001600081525090565b6000819050919050565b6112a781611294565b82525050565b60006020820190506112c2600083018461129e565b92915050565b6000604051905090565b600080fd5b600080fd5b600073ffffffffffffffffffffffffffffffffffffffff82169050919050565b6000611307826112dc565b9050919050565b611317816112fc565b811461132257600080fd5b50565b6000813590506113348161130e565b92915050565b6000602082840312156113505761134f6112d2565b5b600061135e84828501611325565b91505092915050565b61137081611294565b811461137b57600080fd5b50565b60008135905061138d81611367565b92915050565b6000602082840312156113a9576113a86112d2565b5b60006113b78482850161137e565b91505092915050565b60008115159050919050565b6113d5816113c0565b82525050565b60006020820190506113f060008301846113cc565b92915050565b600080fd5b600080fd5b6000601f19601f8301169050919050565b7f4e487b7100000000000000000000000000000000000000000000000000000000600052604160045260246000fd5b61144982611400565b810181811067ffffffffffffffff8211171561146857611467611411565b5b80604052505050565b600061147b6112c8565b90506114878282611440565b919050565b600067ffffffffffffffff8211156114a7576114a6611411565b5b6114b082611400565b9050602081019050919050565b82818337600083830152505050565b60006114df6114da8461148c565b611471565b9050828152602081018484840111156114fb576114fa6113fb565b5b6115068482856114bd565b509392505050565b600082601f830112611523576115226113f6565b5b81356115338482602086016114cc565b91505092915050565b600080600060608486031215611555576115546112d2565b5b600084013567ffffffffffffffff811115611573576115726112d7565b5b61157f8682870161150e565b93505060206115908682870161137e565b92505060406115a186828701611325565b9150509250925092565b600081519050919050565b600082825260208201905092915050565b60005b838110156115e55780820151818401526020810190506115ca565b60008484015250505050565b60006115fc826115ab565b61160681856115b6565b93506116168185602086016115c7565b61161f81611400565b840191505092915050565b611633816112fc565b82525050565b600060e0820190508181036000830152611653818a6115f1565b9050611662602083018961129e565b61166f604083018861129e565b61167c606083018761162a565b611689608083018661129e565b61169660a08301856113cc565b6116a360c083018461129e565b98975050505050505050565b600081519050919050565b600082825260208201905092915050565b6000819050602082019050919050565b600082825260208201905092915050565b60006116f7826115ab565b61170181856116db565b93506117118185602086016115c7565b61171a81611400565b840191505092915050565b61172e81611294565b82525050565b61173d816112fc565b82525050565b61174c816113c0565b82525050565b600060e083016000830151848203600086015261176f82826116ec565b91505060208301516117846020860182611725565b5060408301516117976040860182611725565b5060608301516117aa6060860182611734565b5060808301516117bd6080860182611725565b5060a08301516117d060a0860182611743565b5060c08301516117e360c0860182611725565b508091505092915050565b60006117fa8383611752565b905092915050565b6000602082019050919050565b600061181a826116af565b61182481856116ba565b935083602082028501611836856116cb565b8060005b85811015611872578484038952815161185385826117ee565b945061185e83611802565b925060208a0199505060018101905061183a565b50829750879550505050505092915050565b6000602082019050818103600083015261189e818461180f565b905092915050565b60006020820190506118bb600083018461162a565b92915050565b6000819050919050565b60006118e66118e16118dc846112dc565b6118c1565b6112dc565b9050919050565b60006118f8826118cb565b9050919050565b600061190a826118ed565b9050919050565b61191a816118ff565b82525050565b60006020820190506119356000830184611911565b92915050565b600060e083016000830151848203600086015261195882826116ec565b915050602083015161196d6020860182611725565b5060408301516119806040860182611725565b5060608301516119936060860182611734565b5060808301516119a66080860182611725565b5060a08301516119b960a0860182611743565b5060c08301516119cc60c0860182611725565b508091505092915050565b600060208201905081810360008301526119f1818461193b565b905092915050565b60006020820190508181036000830152611a1381846115f1565b905092915050565b7f5468697320656d706c6f796565206973206e6f7420616e2061646d696e210000600082015250565b6000611a51601e836115b6565b9150611a5c82611a1b565b602082019050919050565b60006020820190508181036000830152611a8081611a44565b9050919050565b6000604082019050611a9c600083018561162a565b611aa9602083018461162a565b9392505050565b7f456d706c6f79656520494420646f6573206e6f74206578697374000000000000600082015250565b6000611ae6601a836115b6565b9150611af182611ab0565b602082019050919050565b60006020820190508181036000830152611b1581611ad9565b9050919050565b7f4e487b7100000000000000000000000000000000000000000000000000000000600052602260045260246000fd5b60006002820490506001821680611b6357607f821691505b602082108103611b7657611b75611b1c565b5b50919050565b600081905092915050565b60008190508160005260206000209050919050565b60008154611ba981611b4b565b611bb38186611b7c565b94506001821660008114611bce5760018114611be357611c16565b60ff1983168652811515820286019350611c16565b611bec85611b87565b60005b83811015611c0e57815481890152600182019150602081019050611bef565b838801955050505b50505092915050565b6000611c2b8284611b9c565b915081905092915050565b7f4e487b7100000000000000000000000000000000000000000000000000000000600052601260045260246000fd5b7f4e487b7100000000000000000000000000000000000000000000000000000000600052601160045260246000fd5b6000611c9f82611294565b9150611caa83611294565b925082611cba57611cb9611c36565b5b828204905092915050565b6000611cd082611294565b9150611cdb83611294565b9250828202611ce981611294565b91508282048414831517611d0057611cff611c65565b5b5092915050565b6000611d1282611294565b9150611d1d83611294565b9250828203905081811115611d3557611d34611c65565b5b92915050565b6000604082019050611d50600083018561162a565b611d5d602083018461129e565b9392505050565b7f4f6e6c792041646d696e732063616e2063616c6c20746869732066756e63746960008201527f6f6e000000000000000000000000000000000000000000000000000000000000602082015250565b6000611dc06022836115b6565b9150611dcb82611d64565b604082019050919050565b60006020820190508181036000830152611def81611db3565b9050919050565b6000611e0182611294565b91507fffffffffffffffffffffffffffffffffffffffffffffffffffffffffffffffff8203611e3357611e32611c65565b5b600182019050919050565b60006020601f8301049050919050565b600082821b905092915050565b600060088302611e8b7fffffffffffffffffffffffffffffffffffffffffffffffffffffffffffffffff82611e4e565b611e958683611e4e565b95508019841693508086168417925050509392505050565b6000611ec8611ec3611ebe84611294565b6118c1565b611294565b9050919050565b6000819050919050565b611ee283611ead565b611ef6611eee82611ecf565b848454611e5b565b825550505050565b600090565b611f0b611efe565b611f16818484611ed9565b505050565b5b81811015611f3a57611f2f600082611f03565b600181019050611f1c565b5050565b601f821115611f7f57611f5081611b87565b611f5984611e3e565b81016020851015611f68578190505b611f7c611f7485611e3e565b830182611f1b565b50505b505050565b600082821c905092915050565b6000611fa260001984600802611f84565b1980831691505092915050565b6000611fbb8383611f91565b9150826002028217905092915050565b611fd4826115ab565b67ffffffffffffffff811115611fed57611fec611411565b5b611ff78254611b4b565b612002828285611f3e565b600060209050601f8311600181146120355760008415612023578287015190505b61202d8582611faf565b865550612095565b601f19841661204386611b87565b60005b8281101561206b57848901518255600182019150602085019450602081019050612046565b868310156120885784890151612084601f891682611f91565b8355505b6001600288020188555050505b505050505050565b60006120a882611294565b91506120b383611294565b92508282019050808211156120cb576120ca611c65565b5b92915050565b60006120dc826115ab565b6120e68185611b7c565b93506120f68185602086016115c7565b80840191505092915050565b600061210e82846120d1565b915081905092915050565b7f4e487b7100000000000000000000000000000000000000000000000000000000600052603260045260246000fd5b7f5468697320656d706c6f79656520697320616c726561647920616e2061646d6960008201527f6e21000000000000000000000000000000000000000000000000000000000000602082015250565b60006121a46022836115b6565b91506121af82612148565b604082019050919050565b600060208201905081810360008301526121d381612197565b9050919050565b600081546121e781611b4b565b6121f181866115b6565b9450600182166000811461220c576001811461222257612255565b60ff198316865281151560200286019350612255565b61222b85611b87565b60005b8381101561224d5781548189015260018201915060208101905061222e565b808801955050505b50505092915050565b6000606082019050818103600083015261227881866121da565b9050612287602083018561162a565b612294604083018461129e565b949350505050565b7f4f776e61626c653a206e6577206f776e657220697320746865207a65726f206160008201527f6464726573730000000000000000000000000000000000000000000000000000602082015250565b60006122f86026836115b6565b91506123038261229c565b604082019050919050565b60006020820190508181036000830152612327816122eb565b9050919050565b7f4f776e61626c653a2063616c6c6572206973206e6f7420746865206f776e6572600082015250565b60006123646020836115b6565b915061236f8261232e565b602082019050919050565b6000602082019050818103600083015261239381612357565b905091905056fea2646970667358221220d9e4ac7143f10d0bdda01fc69e7892d579be30b97433b0f4cfc3892efc4eee2164736f6c63430008110033",
  "linkReferences": {},
  "deployedLinkReferences": {}
}